:100000000C9427030C94DA1A0C94B31A0C944F0333
:100010000C944F030C944F030C94591B0C944F03F6
:100020000C944F030C944F030C944F030C944F0308
:100030000C944F030C944F030C944F030C944F03F8
:100040000C94691A0C944F030C94271B0C94011BFD
:100050000C944F030C944F030C944F030C944F03D8
:100060000C944F030C944F0300407A10F35A00A0F5
:10007000724E18090010A5D4E80000E87648170071
:1000800000E40B54020000CA9A3B000000E1F505B1
:10009000000080969800000040420F000000A086FB
:1000A00001000000102700000000E803000000002D
:1000B0006400000000000A000000000001000000D1
:1000C00000002C76D888DC674F0823DFC1DFAE59EB
:1000D000E1B1B796E5E3E453C63AE651997696E87E
:1000E000E6C28426EB898C9B62ED407C6FFCEFBC02
:1000F0009C9F40F2BAA56FA5F490055A2AF75C932D
:100100006B6CF9676DC11BFCE0E40D47FEF520E662
:10011000B500D0ED902E0300943577050080841E45
:10012000080000204E0A000000C80C333333330FA0
:10013000986E12831141EF8D2114893BE65516CF3D
:10014000FEE6DB18D1844B381BF77C1D901DA4BB49
:10015000E424203284725E228100C9F124ECA1E5FE
:100160003D2754534D3A494E49540A002154534DAA
:100170003A494E49543A545350204641494C0A009A
:100180005453463A5349443A4F4B2C49443D257504
:100190000A00215453463A5349443A4641494C2CAB
:1001A00049443D25750A0054534D3A494E49543A45
:1001B0005354415449443D25750A0054534D3A491E
:1001C0004E49543A545350204F4B0A0054534D3A21
:1001D000465041520A002154534D3A465041523A3A
:1001E0004E4F205245504C590A002154534D3A4627
:1001F0005041523A4641494C0A0054534D3A4650F8
:1002000041523A4F4B0A0054534D3A49443A5245F1
:10021000510A0054534D3A49440A002154534D3A6F
:1002200049443A4641494C0A0054534D3A49443AEC
:100230004F4B0A0054534D3A55504C3A44495341A0
:10024000424C45440A0054534D3A52454144593AB0
:1002500049443D25752C5041523D25752C44495348
:100260003D25750A002154534D3A52454144593AAF
:1002700055504C204641494C2C534E500A00545383
:100280004D3A4641494C3A4449530A0054534D3A79
:100290004641494C3A434E543D25750A0054534D4E
:1002A0003A4641494C3A52452D494E49540A00219B
:1002B0005453463A5254453A4E324E204641494CE8
:1002C0000A005453463A5254453A4E324E204F4B50
:1002D0000A00215453463A5254453A46504152205E
:1002E0004143544956450A00215453463A534E441B
:1002F0003A544E520A0025735453463A4D53473AE6
:1003000053454E442C25752D25752D25752D2575A8
:100310002C733D25752C633D25752C743D25752C5E
:1003200070743D25752C6C3D25752C73673D2575C6
:100330002C66743D25752C73743D25733A25730A1C
:10034000005453463A5349523A434D443D25752C87
:1003500056414C3D25750A004D434F3A5245473AA8
:100360005245510A00214D434F3A50524F3A5243A1
:100370003D25750A00214D434F3A5741493A5243B2
:100380003D25750A005453463A5452493A54534253
:100390000A005453463A5444493A54534C0A004DC7
:1003A000434F3A534C503A5755503D25690A002166
:1003B0004D434F3A534C503A4E544C0A004D434F24
:1003C0003A534C503A4D533D256C750A00214D432C
:1003D0004F3A534C503A544E520A004D434F3A5301
:1003E0004C503A4D533D256C752C534D533D25755E
:1003F0002C49313D25752C4D313D25752C49323D1B
:1004000025752C4D323D25750A005453463A5755F3
:10041000523A4D533D256C750A004D434F3A4247C1
:100420004E3A494E4954204F4B2C5453503D25755C
:100430000A004D434F3A42474E3A5354500A004D3A
:10044000434F3A42474E3A4246520A004D434F3AD2
:1004500042474E3A494E4954204E4F44452C435052
:100460003D52504E4E412D2D2D2C46513D25752C83
:1004700052454C3D25752C5645523D322E332E3279
:100480000A004D434F3A50494D3A4E4F4445205291
:1004900045473D25750A00215453463A4D53473A86
:1004A00052454C204D53472C4E5245500A00545350
:1004B000463A4D53473A5243562043420A0054535A
:1004C000463A4D53473A42430A005453463A4D5335
:1004D000473A4543484F0A00215453463A4D534743
:1004E0003A504F4E4720524543562C494E414354B3
:1004F0004956450A005453463A4D53473A504F4ED9
:100500004720524543562C48503D25750A00545308
:10051000463A4D53473A50494E4745442C49443D8D
:1005200025752C48503D25750A00215453463A4DF7
:1005300053473A4650415220494E4143544956454B
:100540000A005453463A4D53473A46504152204FC1
:100550004B2C49443D25752C443D25750A005453C8
:10056000463A4D53473A4543484F205245510A00B9
:100570005453463A4D53473A524541442C25752D24
:1005800025752D25752C733D25752C633D25752C02
:10059000743D25752C70743D25752C6C3D25752C8E
:1005A00073673D25753A25730A00005EBCE2613F22
:1005B000DD83C29C7E20A3FD1F41009D23BE46DB40
:1005C00065F88C11AF32CA57E974000000002400AE
:1005D00027002A0000000000250028002B00000052
:1005E00000080002010000030407000000000000F2
:1005F0000000214D434F3A5741493A52433D25753A
:100600000A00214D434F3A534E443A4E4F44452041
:100610004E4F54205245470A000000000023002698
:100620000029000404040404040404020202020277
:1006300002030303030303010204081020408001A6
:10064000020408102001020408102000631B11247A
:100650001FBECFEFD8E0DEBFCDBF13E0A0E0B1E01A
:10066000E0E0FBE402C005900D92AE30B107D9F78F
:1006700026E0AEE0B3E001C01D92A035B207E1F77D
:1006800013E0C7E2D3E004C02197FE010E944C258D
:10069000C632D107C9F70E94251C0C947E250C9404
:1006A0000000E5E6F4E0A089B18982E08C93A4859E
:1006B000B5851C92A685B78588E08C93108EA48999
:1006C000B58986E08C93A289B3898C9180618C93E3
:1006D000A289B3898C9188608C93A289B3898C910B
:1006E00080688C930288F389E02D80818F7D8083E0
:1006F0000895942FEEE0F6E0309161043183828317
:10070000668325834481487F492B477E4483CF01FC
:10071000089590E0FC01E252FA4F2491FC01E95C5B
:10072000F94F3491FC01ED5DF94FE491EE23C9F0EE
:10073000222339F0233001F1A8F4213019F12230BD
:1007400029F1F0E0EE0FFF1FEC52FA4FA591B491A2
:100750008FB7F894EC91611126C030953E233C93FD
:100760008FBF08952730A9F02830C9F0243049F709
:10077000809180008F7D03C0809180008F7780936F
:100780008000DFCF84B58F7784BDDBCF84B58F7DCC
:10079000FBCF8091B0008F778093B000D2CF809153
:1007A000B0008F7DF9CF3E2BDACFCF93DF9390E06F
:1007B000FC01E95CF94F24918D5D994FFC01849116
:1007C0008823D1F090E0880F991FFC01E653FA4F7F
:1007D000A591B491FC01EC52FA4FC591D4916111ED
:1007E0000EC09FB7F8948C91E22FE0958E238C93E6
:1007F0002881E223E8839FBFDF91CF9108958FB7CF
:10080000F894EC91E22BEC938FBFF6CF8E3008F08A
:100810008E5020911F0190E4299F90011124877030
:10082000822B80937C0080917A00806480937A0090
:1008300080917A0086FDFCCF8091780090917900BC
:1008400008953FB7F8948091270490912804A091CF
:100850002904B0912A0426B5A89B05C02F3F19F0A2
:100860000196A11DB11D3FBFBA2FA92F982F882730
:10087000BC01CD01620F711D811D911D43E0660F0A
:10088000771F881F991F4A95D1F708958F929F92DD
:10089000AF92BF92CF92DF92EF92FF926B017C01F9
:1008A0000E9421044B015C01C114D104E104F10454
:1008B000B9F00E942104681979098A099B09683EE8
:1008C00073408105910580F321E0C21AD108E10847
:1008D000F10888EE880E83E0981EA11CB11CE4CFBD
:1008E000FF90EF90DF90CF90BF90AF909F908F9050
:1008F00008952FB7F8946091230470912404809197
:100900002504909126042FBF08950895AF92BF92B9
:10091000CF92DF92EF92FF920F931F93CF93DF93CB
:100920006C017B018B01040F151FEB015E01AE18FA
:10093000BF08C017D10759F06991D601ED91FC911C
:100940000190F081E02DC6010995892B79F7C50149
:10095000DF91CF911F910F91FF90EF90DF90CF909B
:10096000BF90AF900895FC01538D448D252F30E04A
:10097000842F90E0821B930B541710F0CF960895AC
:1009800001970895FC01918D828D981761F0A28DD9
:10099000AE0FBF2FB11D5D968C91928D9F5F9F739F
:1009A000928F90E008958FEF9FEF0895FC01918D55
:1009B000828D981731F0828DE80FF11D858D90E0C2
:1009C00008958FEF9FEF0895FC01918D228D892F5F
:1009D00090E0805C9F4F821B91098F739927089547
:1009E00085E694E00E94E40421E0892B09F420E0EC
:1009F000822F0895FC01A48DA80FB92FB11DA35A11
:100A0000BF4F2C91848D90E001968F739927848F2E
:100A1000A689B7892C93A089B1898C918370806451
:100A20008C93938D848D981306C00288F389E02DF2
:100A300080818F7D80830895EF92FF920F931F93A3
:100A4000CF93DF93EC0181E0888F9B8D8C8D981381
:100A50001AC0E889F989808185FF15C09FB7F8948D
:100A6000EE89FF896083E889F989808183708064D9
:100A700080839FBF81E090E0DF91CF911F910F9124
:100A8000FF90EF900895F62E0B8D10E00F5F1F4F33
:100A90000F731127E02E8C8D8E110CC00FB607FC42
:100AA000FACFE889F989808185FFF5CFCE010E94D0
:100AB000FA04F1CFEB8DEC0FFD2FF11DE35AFF4F40
:100AC000F0829FB7F8940B8FEA89FB89808180625E
:100AD000CFCFCF93DF93EC01888D8823B9F0AA891B
:100AE000BB89E889F9898C9185FD03C0808186FDE9
:100AF0000DC00FB607FCF7CF8C9185FFF2CF808138
:100B000085FFEDCFCE010E94FA04E9CFDF91CF91AE
:100B1000089580E090E0892B29F00E94F004811173
:100B20000C9400000895DC0180E0615090F09D91EC
:100B30009827E92FEF70F0E0E655FA4F2491E92F5E
:100B4000E295EF70F0E0E654FA4FE491822F8E27A1
:100B5000ECCF0895DC012C911196ED91FC91F89465
:100B60008181822B81839281322F309593239283CE
:100B700082E090E00197F1F781818323818380E116
:100B800090E00197F1F790817894E6E6F0E03197F4
:100B9000F1F7922381E009F480E00895FC0190814F
:100BA0000180F281E02D292F209560FF14C0F89478
:100BB0008281822382838181892B8183A0E1B0E0BD
:100BC0001197F1F78281982B928378948AE690E0CE
:100BD0000197F1F70895F8948281822382838181BD
:100BE000892B8183AEE7B0E01197F1F78281982BD2
:100BF0009283789486E090E0EBCFDF92EF92FF92C1
:100C00000F931F93CF93DF93EC01D62EE42E08E0D1
:100C100010E0FF24F39461E08D2D8F2109F460E052
:100C2000CE010E94CE05FF0C01501109A1F7E11081
:100C300010C0F894E981FA81918188818095892397
:100C40008183E981FA8192818881809589238283D9
:100C50007894DF91CF911F910F91FF90EF90DF90EB
:100C60000895EF92FF920F931F93CF93DF938C0120
:100C70007B0140E065E50E94FD05E70188E0E80EA4
:100C8000F11C699140E0C8010E94FD05CE15DF0509
:100C9000C1F7DF91CF911F910F91FF90EF900895D1
:100CA0008FB7F8948091CA038FBF0895FC018381A8
:100CB00087708061838384818F718064848370876F
:100CC0006783CF010895FC018381877088608383E7
:100CD00084818F71806284836783CF010895FC01D2
:100CE00083818695869586958A3108F089E10895F5
:100CF000E091CB03F091CC03309721F00280F38197
:100D0000E02D099408950F931F930E947904009198
:100D1000CD031091CE032091CF033091D003601BFF
:100D2000710B820B930B1F910F9108959C01809181
:100D3000CB039091CC0382179307F1F09091D503E8
:100D40009F719093D5033093CC032093CB03E09114
:100D5000CB03F091CC03309721F00190F081E02D8E
:100D600009950E9479046093CD037093CE0380931C
:100D7000CF039093D00308958091D503805E809334
:100D8000D503E5CF089581E08093DA03089580913B
:100D9000E00385FF08C08091E303869590E091957C
:100DA0008195910908958FE790E0089580E58CBDC5
:100DB00081E08DBD0895CF93C82F85E694E00E9411
:100DC000690580917A008F7780937A002091600086
:100DD000CF3F09F439C034E0C39FC00111248072B1
:100DE000C770C860C82B88E10FB6F894A8958093A7
:100DF00060000FBEC09360008091600080658093AA
:100E0000600083B7817F846083BFF89483B781607B
:100E100083BF85B7806685BF8F7D85BF78948895B1
:100E200083B78E7F83BFF894A89580916000886116
:100E30008093600020936000789480917A008068AD
:100E400080937A00CF9108950FB6F894A895809179
:100E50006000886180936000109260000FBED1CF67
:100E60008EBD00000DB407FEFDCF8EB50895FC01C8
:100E700001900020E9F73197AF01481B590BBC01E5
:100E800085E694E00C9486048F929F92AF92BF9275
:100E90000F931F93CF93DF93CDB7DEB7A1970FB614
:100EA000F894DEBF0FBECDBF19A2423008F44AE06D
:100EB0008E010F5D1F4F842E912CB12CA12CA5010A
:100EC00094010E942A25E62FB901CA01EA30F4F400
:100ED000E05DD801EE938D01232B242B252B79F790
:100EE00090E080E0109719F0CD010E943707A1969D
:100EF0000FB6F894DEBF0FBECDBFDF91CF911F912B
:100F00000F91BF90AF909F908F900895E95CE1CFD3
:100F1000CF93DF930E943707EC018EE891E00E94A7
:100F200037078C0F9D1FDF91CF9108950C943707E1
:100F3000FC0190810180F281E02DF8948181292FBC
:100F400020958223818378943DE7315011F180818F
:100F50008923D9F3F8948281822382838181892B2A
:100F600081837894ACEBB3E01197F1F7F894818129
:100F700082238183A8E8B0E01197F1F7808198235C
:100F800081E009F080E07894E0E3F3E03197F1F755
:100F9000089580E00895BF92CF92DF92EF92FF9282
:100FA0000F931F93CF93DF93EC01B62EC72E8D8541
:100FB000811105C0CE010E94980781110EC01B86C9
:100FC0001D861C8680E0DF91CF911F910F91FF90CD
:100FD000EF90DF90CF90BF90089540E060EFCE019A
:100FE0000E94FD0501E0E12CD12C11E0CE010E9410
:100FF000AA05F82ECE010E94AA0591E0F91218C0A8
:10100000813099F51134D8F2DB86D11002C081E02D
:101010008D878B81882399F22396EB2DFC2DCF01B0
:10102000089629912193E817F907D9F781E0CBCFEA
:10103000EE2DF0E0F8120FC08B851817A0F4DE013A
:10104000AE0FBF1F13968C91802379F4F12C1930C9
:1010500008F41C87D12EEC0FFD1F8381902F9095F3
:10106000892383830AC08113F1CFFE01EE0DF11DA8
:101070008381802B8383FF24F3946F2DCE010E9404
:10108000CE051F5F000F11F4E39401E087E08E1599
:1010900008F0ACCFB7CFFF920F931F93CF93DF939E
:1010A0008C01F62EE091F205F091F305138615867A
:1010B0001486128611861086178216821582148273
:1010C0001382D0E0B8018091F2059091F3050E945F
:1010D000CB07C82F882339F0FD1639F081E08D0F3A
:1010E000D1E0F81678F7C0E008C067E0C8010E94B8
:1010F0009305F80197818913F1CF8C2FDF91CF9160
:101100001F910F91FF9008956F927F928F929F92FF
:10111000AF92BF92CF92DF92EF92FF920F931F9305
:10112000CF93DF938C01EB018091F2059091F30551
:101130000E949807882309F43FC0B8018091F20506
:101140009091F3050E94310640E06EEB8091F2052C
:101150009091F3050E94FD057E016E0189E0C80EA5
:10116000D11C8E01A090F205B090F30588E0882E86
:10117000912C712C66246394C5010E94AA058111EB
:101180007628660CE1E08E1A9108B1F7F8017192A9
:101190008F01CE16DF0631F78091F2059091F305AD
:1011A0000E949807813041F4F70181917F018111FC
:1011B00005C0E017F107C1F790E008C068E0CE0174
:1011C0000E94930591E028852813F6CF892FDF919F
:1011D000CF911F910F91FF90EF90DF90CF90BF9034
:1011E000AF909F908F907F906F9008950F931F9373
:1011F000CF93DF93CDB7DEB729970FB6F894DEBF54
:101200000FBECDBF8C01BE016F5F7F4F0E9484086F
:10121000811105C060E070E08EEF92EC3EC06A8103
:1012200070E0762F6627770F770F770F298148E0D8
:10123000249F90011124262B372BF80180818031C7
:10124000E1F468856623C9F070E08F81AB01481B2B
:101250005109CA019695982F8827979587950E94DE
:101260001625CB018097B90153E0660F771F5A9579
:10127000E1F760789C01260F371F213854EE3507BF
:101280004CF2B901330F880B990B0E94E32220E046
:1012900030E040E05CE30E94422329960FB6F894C8
:1012A000DEBF0FBECDBFDF91CF911F910F9108958B
:1012B0000E94510381E991E00E94960785EA91E03E
:1012C0000E949607609110037091110390E080E0F6
:1012D0004AE00E9444078CEA91E00E94880786EB6E
:1012E00091E00E9496078091E905882301F18AEC3C
:1012F00091E00E94880760E084E193E00E944B083F
:10130000811104C081ED91E00E94880761E08EE6C2
:1013100093E00E944B08811104C085EF91E00E9488
:10132000880783E080931F018EE00C9406048DEC07
:1013300091E0DFCF0F931F93CF93DF93EC018B01ED
:10134000E0E06115710549F0FB0101900020E9F72B
:101350003197E61BEA3108F0E9E18B81877098E06C
:10136000E99FF0011124E82BEB838C818F718C8332
:10137000CE010E946F06482F50E0B801CE010796BB
:101380000E946F25CE010E946F068C0F9D2F911D2C
:10139000FC011782CE01DF91CF911F910F9108952B
:1013A0000F931F93CF93DF93EC018C8182958695E9
:1013B0008770A9F4CE010E946F06482F50E0BE014D
:1013C000695F7F4F8EE294E00E946F25CE010E94FC
:1013D0006F06E82FF0E0E25DFB4F108209C081301C
:1013E00071F48F814AE06EE274E090E00E94781D13
:1013F0008EE294E0DF91CF911F910F91089582309A
:1014000031F44AE06EE274E08F819885EFCF83304B
:1014100041F44AE06EE274E08F8198850E94D11D0C
:10142000E7CF843051F46F81788589859A852AE0E9
:101430004EE254E00E94831DDBCF853051F46F8172
:10144000788589859A852AE04EE254E00E94AF1D96
:10145000CFCF10E0873071F42B85293008F028E0D9
:101460006F81788589859A850EE214E042E00E94BA
:10147000151DBECFCE010E946F06181738F5E12F5B
:10148000F0E09F01220F331FD901A25DBB4FEC0F8B
:10149000FD1F8781082E000C990B44E095958795D8
:1014A0004A95E1F78F708A3068F4805D8C93215DF6
:1014B0003B4F87818F708A3038F4805DF9018083DB
:1014C0001F5FD8CF895CF2CF895CF8CFE82FF0E0BE
:1014D000EE0FFF1F80CF809133068295869587702F
:1014E000813019F4809136060895811105C086E394
:1014F00096E00E94331D089580E00895CF93DF9316
:10150000FC01108211821282148215821682DC0183
:1015100017968AE1ED0119928A95E9F782E08383B3
:10152000DF91CF910895CF92DF92EF92FF920F93C8
:101530001F93CF93DF93C82F7B01142F022F0E949C
:10154000D6062A988C2F0E943007E7011150A0F090
:10155000002349F080E00E943007E114F104B1F368
:1015600088832196F3CF6E018FEFC81AD80A88813D
:101570000E943007E601EACF2A9ADF91CF911F91AE
:101580000F91FF90EF90DF90CF900895CF93DF936E
:101590001F92CDB7DEB7698320E041E0BE016F5FE7
:1015A0007F4F80680E94930A0F90DF91CF9108953A
:1015B000CF93C82F6AE181116FE083E10E94C60AD0
:1015C00065E5C1116DE58AE50E94C60A60E7C111B3
:1015D0006CE78CE5CF910C94C60A21E041E070E005
:1015E00060E00C94930ACF9389E20E94ED0AC82F21
:1015F0008FE20E94ED0A91E0C43E09F090E0C1E064
:101600008D3209F0C0E0C92380E30E94ED0A91E029
:10161000843609F090E0892F8C23CF9108950F93A1
:101620001F93CF93DF93EC0190912104892F877052
:101630008C171D0631F480E0DF91CF911F910F913F
:101640000895C430D105E9F160E8C330D105B1F0A7
:10165000209731F5977F9F7E9093210460E485E287
:101660000E94C60A80E00E94D80A8DE30E94ED0A1B
:10167000682F64608DE30E94C60A60E181E00E94E9
:10168000C60A8091210487708330E9F08C2F87701F
:10169000C0912104C87FC82BC093210481E0CCCF26
:1016A000C130D10571F460E085E20E94C60A81E094
:1016B00090911F0492310CF480E00E94D80A6CE0F3
:1016C000DDCF64E0DBCF0FEF1FEF87E20E94ED0A72
:1016D00087FD06C0C8010197012BC1F28C01F5CF2F
:1016E000012B09F4A8CFD2CFCF92DF92EF92FF92D5
:1016F0000F93CF93DF93CDB7DEB7C254D1090FB6A6
:10170000F894DEBF0FBECDBF91E09B839091DB03C9
:101710009C838A834B3308F04AE322964FAF22978B
:101720002D8350E0CE0107960E94662522968FAD4C
:1017300022978B5F898380912104887F84608093C6
:10174000210490E080E00E940F0B61E070E080E0F7
:1017500090E00E9446040E9479046B017C0184E2BF
:101760000E94ED0A8F3B68F40E9479046C197D0990
:101770008E099F09643F71408105910510F4A89579
:10178000EECF84E090E00E940F0B002329F08091BF
:101790001E048F5F80931E0460E188E20E94C60AE7
:1017A00080911E048E8322964FAD22974A5F20E0DF
:1017B000BE016F5F7F4F80E80E94930A81E090E056
:1017C0000E940F0B0E9479046B017C018091DA0367
:1017D0008823A9F09091DA0381E0911101C080E0A3
:1017E000CE5BDF4F0FB6F894DEBF0FBECDBFDF91EB
:1017F000CF910F91FF90EF90DF90CF9008950E94CE
:1018000079046C197D098E099F09603D7740810537
:10181000910500F7A895DACF0F931F93CF93DF932D
:1018200088E20E94ED0AC82F80912104877009F098
:1018300054C0C2FF52C084E090E00E940F0BC5FF6D
:1018400042C00E94D6062A9880E00E9430070CED24
:1018500013E086E0D0E0CFEFC80F882399F180E055
:101860000E943007F80181938F01C11129C0D11165
:1018700027C0C091DE03CC2311F18091DC03855099
:10188000990B8134910510F080E490E0C82F80938B
:101890001C048091E00391E0282F207486FF90E0E3
:1018A0008091210490FB84F98093210491E021111F
:1018B00090E08091210490FB83F980932104D1E092
:1018C0008C2FC9CF2A9A84E20E94ED0A80931D04CE
:1018D000DF91CF911F910F91089590E080E0DF910B
:1018E000CF911F910F910C940F0BEF92FF920F93DA
:1018F0001F93CF93DF93CDB7DEB7C857D1090FB68B
:10190000F894DEBF0FBECDBF8E010F571F4FF801F9
:10191000E190F1908F010E9479044AE00E9444070F
:101920008FED92E00E9496079801A70168E770E0AA
:10193000CE0101960E94EB1DCE0101960E949607F2
:1019400085E694E00E946905C858DF4F0FB6F89409
:10195000DEBF0FBECDBFDF91CF911F910F91FF90E2
:10196000EF900895CF93DF938055843208F06DC0D7
:10197000E82FF0E0EE5AFE4F2081822F90E02730D2
:1019800008F065C0FC01E953F34F0C944C25CE0CD4
:10199000EB0C2A0D2A0DF10CF90C190DC0911D0448
:1019A000C695D0E0D195C195D10990E080E0DF9354
:1019B000CF939F938F9381E493E09F938F930E94A3
:1019C000750C0F900F900F900F900F900F90CE010D
:1019D000DF91CF9108950E94C706EC0181E090E06D
:1019E000E6CFC0911F040C2E000CDD0B84E090E0CC
:1019F000DECF60911F04062E000C770B6E5F7F4FC9
:101A0000072E000C880B990B0E94E32220E030E0A7
:101A100048EC52E40E94422320E030E040E05FE3E3
:101A20000E9442230E94DD24C62FD0E085E090E092
:101A3000BECFC091D803D091D90384E0D595C79586
:101A40008A95E1F786E090E0B2CF87E090E0D0E0C1
:101A5000C0E0ADCFC0E0DFEFAACF4F925F926F92B0
:101A60007F928F929F92AF92BF92CF92DF92EF922E
:101A7000FF920F931F93CF93DF93E82EEB0180919A
:101A8000610488838B8140E2C42E82FD06C0CB01B5
:101A90000E946F0657E0C52EC80E80916404FF2493
:101AA000F39480FD03C08FEFE812F12C209709F02A
:101AB00076C010E08C818770833039F48D8129E104
:101AC000A22E22E0B22E813121F0CE010E94D00957
:101AD0005C0194E2C92E92E0D92E112321F081E21B
:101AE000C82E82E0D82E8091D6038F70982E0B815D
:101AF00002FB002700F9CE010E946F069C81F92F9E
:101B0000F295F695F770ED8197707E816A81588124
:101B1000498129E232E0F11006C02BE232E01123C4
:101B200011F020E931E0BF92AF92DF92CF921F9285
:101B30009F921F920F931F928F931F92FF931F925A
:101B4000EF931F929F931F927F931F926F931F9209
:101B5000EF921F925F931F924F933F932F9386EFC5
:101B600092E09F938F930E94750C8DB79EB74E960F
:101B70000FB6F8949EBF0FBE8DBF812FDF91CF911E
:101B80001F910F91FF90EF90DF90CF90BF90AF909B
:101B90009F908F907F906F905F904F900895D12C81
:101BA000F11002C030E8D32E7D2C689475F810E057
:101BB00080912104272D85FF2D2D01E0111100E0DA
:101BC0004C2DBE018E2D0E94740BFF2011F011E0F0
:101BD00071CF0E9479044B015C010E94790468195D
:101BE00079098A099B09683C71058105910508F00E
:101BF00053C08091210483FD4FC08091DA03882374
:101C000021F01092DA030E940C0C8091210484FFD1
:101C1000E4CF4090DF035090E2036090E003009136
:101C2000E3038F7E8093210490E080E00E940F0BFD
:101C3000E410D3CF80911E045812CFCF809121049D
:101C400085FB112710F985FFC2CF65FEC0CF9091AB
:101C5000200480911F042CEF290F201718F461E055
:101C600087FD08C09C5F091708F0B1CF8F3F0CF4C7
:101C7000AECF6FEF680F6E3F0CF46EEF16160CF4DC
:101C800060E0861709F4A3CF60931F046E5E606462
:101C900081E10E94C60A0ECF1F5F153009F088CF80
:101CA00008CFCF92DF92EF92FF920F931F93CF93C3
:101CB000DF938C01FC0182819091D50390FF16C0C7
:101CC0008F3F09F447C082ED92E09F938F930E946B
:101CD000750C0F900F90C0E08C2FDF91CF911F916A
:101CE0000F91FF90EF90DF90CF900895D091620414
:101CF0008823D9F08F3F71F1B8010E942D0DC82FB4
:101D0000882349F082EC92E09F938F930E94750C98
:101D10000F900F90E1CF8FEA92E09F938F930E94F4
:101D2000750CD09162040F900F90B8018D2F0E9416
:101D30002D0DC82F809162048D13CECF8091D603D4
:101D4000C1110AC091E0980F9F70807F892B80930A
:101D5000D603C2CFDFEFE9CF807F8093D6030E9406
:101D6000C706EC016091D8037091D903072E000CCF
:101D7000880B990B0E94E32223E333E343E75FE3FD
:101D80000E9442236B017C01BE0184E0660F771F35
:101D90008A95E1F7072E000C880B990B0E94E3222D
:101DA0002DEC3CEC4CE45DE30E9442239B01AC0132
:101DB000C701B6010E946A240E94D6247093D903F9
:101DC0006093D803C1E088CF2091D50322FD0C9405
:101DD000510E88EE92E09F938F930E94750C0F90A6
:101DE0000F9080E008951F93CF93DF93182F262F35
:101DF000EA0150E040E0682F80E00E9479031F3F35
:101E000011F4CDE2D2E0BE010E949A09DF91CF9198
:101E10001F910C94E40EFC018091610481839481F4
:101E2000907F9160948380912D0480FF03C0CF0147
:101E30000C94E40E82E096E09F938F930E94750CC1
:101E40000F900F9080E008950F931F93CF93DF932F
:101E5000CDB7DEB761970FB6F894DEBF0FBECDBF2A
:101E600061E084E00E94D50361E084E00E94890380
:101E700083E392E00E949607E091F205F091F3056A
:101E8000138615861486128611861086178216828E
:101E90001582148213821092F0051092F10511E060
:101EA000BE01665F7F4F8091F2059091F3050E941D
:101EB000CB07882309F475C067E0CE010A960E941B
:101EC000930599898913ECCF8091F0058F5F8093FA
:101ED000F0058A85883231F008F049C0803111F070
:101EE0008232F1F68091F1058F5F8093F105809148
:101EF000E905811128C08091F2059091F3050E94B7
:101F00009807BE01665F7F4F8091F2059091F305BF
:101F10000E94310640E064EB8091F2059091F30558
:101F20000E94FD058091F2059091F3050E94AA059B
:101F3000082F8091F2059091F3050E9498070111F6
:101F400002C01093E9058A858031E1F0BE016F5F20
:101F50007F4FCE010A960E948408882331F08D813C
:101F60008F33D9F058F48F31D1F080E00EC08B332D
:101F700009F4B8CF823409F093CFB4CF8F3521F074
:101F80008F3799F78CE001C08BE09091EC059817A2
:101F900008F086CF8093EC0583CF8AE0F6CF89E006
:101FA000F4CF6091F005862F90E090931103809319
:101FB000100370E090E080E04AE00E9444078EE861
:101FC00091E00E94370710E000E0809110039091AB
:101FD00011030817190788F448E452E066E070E03E
:101FE00084E1800F0E94F30E64EF71E080E090E0E6
:101FF0000E9446040F5F1F4FE8CF2BE043E050E004
:102000006FEF80E00E94790364E572E00E949A0914
:102010000E94E40E2CE043E050E06FEF80E00E946D
:1020200079036BE572E00E949A090E94E40E8FE545
:1020300092E00E94960742E752E06EE170E08CE089
:102040000E94F30E4AE752E063E070E08DE00E94E8
:10205000F30E42E852E067E170E08AE00E94F30E7E
:102060004FE852E067E170E08AE00E94F30E47E932
:1020700052E067E170E08AE00E94F30E60E082E0E7
:1020800095E00E9463060E940B0F61960FB6F894CC
:10209000DEBF0FBECDBFDF91CF911F910F9108958D
:1020A0002FE043E050E06FEF80E00E94790360E9A9
:1020B00071E00E949A09EEE0F6E08381877080610A
:1020C000838384818F71806C848381E08783108611
:1020D000CF010E94E40E8FE00E94651340E951E0B9
:1020E00061E170E08FEF0E94F30E26E043E050E0E4
:1020F0006FEF80E00E947903609162040E946306A2
:102100000E94E40E86E00E9465130C94240F2F9227
:102110003F924F925F926F927F928F929F92AF9277
:10212000BF92CF92DF92EF92FF920F931F93CF93C4
:10213000DF93CDB7DEB7A1970FB6F894DEBF0FBE21
:10214000CDBF86E0E82E90E0892E90E0992E2224E3
:102150002A9422E0322E23E0422E532C8091DA037F
:10216000882321F01092DA030E940C0C8091210444
:1021700083FB772470F883FF1CC0EA94E11021C030
:10218000A1960FB6F894DEBF0FBECDBFDF91CF9101
:102190001F910F91FF90EF90DF90CF90BF90AF9085
:1021A0009F908F907F906F905F904F903F902F9077
:1021B00008958770823020F390E080E00E940F0B3A
:1021C000DFCF10911C04103208F010E2F090DF0312
:1021D000C090E1030091E003D0901D04412F50E036
:1021E00062EE73E08FE296E00E9466258091210402
:1021F000877F8093210407FF0DC006FD0BC0C982B5
:10220000DA8201E020E642E0BE016F5F7F4F8F2D52
:102210000E94740B81E2EFE2F6E0DE01119601907C
:102220000D928A95E1F70C81802F8370823009F03E
:1022300095CFCE0101960E946F0602FD89E1895F6C
:1022400018138CCF8FE296E00E946F06682E809163
:1022500033068770F82E1091340600913006D09026
:102260002F06C090310623E0821304C089E192E07A
:10227000113121F08FE296E00E94D009A62CB12CFA
:102280009F938F938091320682FB882780F91F925B
:102290008F931F926F9280913306829586958770F7
:1022A0001F928F931F921F931F92FF92809135066A
:1022B0001F928F931F92CF921F92DF921F920F93C4
:1022C00080E795E09F938F930E94750C8091D603D1
:1022D00080688093D6030FB6F894DEBF0FBECDBFE3
:1022E00080916104C81288C1F501E15DF94F178240
:1022F0008091330683FF21C08EE595E09F938F93F5
:102300000E94750C81E2EFE2F6E0AEE0B6E00190EB
:102310000D928A95E1F780911206877E8061809305
:1023200012068091610480930F06009310068EE0E0
:1023300096E00E94E40E0F900F909091330694FD6A
:1023400052C123E0F21243C18091340621EF280FDD
:10235000233008F403CF143009F400CF183081F58E
:102360001091D50310FF25C00E946B0A8F3F09F41E
:10237000F5CE8F5F8F3F09F4F1CE909163048917FA
:1023800008F0ECCE11FDEACE809363040093620462
:102390001F928F931F920F9382E495E09F938F93E8
:1023A0000E94750C0F900F900F900F900F900F9050
:1023B000D5CE8AE295E09F938F930E94750C5FC102
:1023C0001831C9F40E946B0A1F928F931F920F93CA
:1023D0008EE095E09F938F930E94750C29E143E076
:1023E00050E06FEF802F0E94790361E00E94630646
:1023F0000E94510ED7CF1931E1F48091D50383FFAC
:1024000014C0877F8093D5030E946B0A8093D70303
:102410001F928F9385EF94E09F938F930E94750C8A
:102420000F900F900F900F9099CE88ED94E09F93AE
:10243000C3CF1E3109F492CE1D3161F510913606DD
:1024400080913706813289F0812F0E94B20C8C0175
:102450002FE143E050E06FEF80E00E947903B80184
:102460000E9456060E94510E79CE2EE143E050E0C4
:102470006FEF80912F060E9479036FEF0E94630631
:102480000E94510E882319F080E2810FDECF00E018
:102490001FEFDECF209130062111A2C08D3059F4FC
:1024A00088E198E00FB6F894A895809360000FBE7D
:1024B00090936000FFCF8B3191F40E946B0A91E002
:1024C000811101C090E080912D0490FB80F98093F0
:1024D0002D041F929F9382E894E09F939ECF8630B5
:1024E000A1F480913606882329F0772473948D34E3
:1024F00009F0712C70922C0441E050E063E071E02F
:102500008CE294E00E94102429CE833119F40E94B9
:10251000501024CE8231E1F40E9483065B016C01ED
:1025200026E143E050E06FEF80E00E947903FC0178
:10253000838187708062838384818F71806A8483C2
:10254000A782B086C186D286CF010E94E40E06CE55
:102550008230A9F422E043E050E06FEF80E00E9477
:102560007903FC01838187708062838384818F710A
:10257000806A84832782308641865286E5CF813007
:1025800001F520E030E0232B09F4E8CD92959695F3
:102590009770953059F460913606709137068091A6
:1025A0003806909139060E940000D8CD911105C0DF
:1025B00086E396E00E94511DF6CF60E070E0CB010B
:1025C000F2CF8A3009F4CACD8C3109F4C7CD811419
:1025D000910409F4C3CD8FE296E00E940000BECDC5
:1025E0008A31A9F7BBCD8AEC94E09F938F930E9428
:1025F000750C0F900F90EBCF3FEF87E994E0C3127B
:1026000016CF8EEB94E09F938F930E94750C0F90E2
:102610000F9033E0F31221C08091D50382FF03C0F5
:10262000173009F49BCD143109F098CD80916204E4
:10263000D81294CD0E9479047370882799270E943C
:10264000460425E143E050E06FEF802F0E947903BC
:10265000609162040E94630605CF80916204D812E3
:102660007DCD8114910409F479CD8EEA94E09F9395
:102670008F930E94750C8FE296E00E9400000F90ED
:102680000F906CCD80910F03882361F01F928F9380
:1026900085E693E09F938F930E94750C0F900F90A7
:1026A0000F900F9080910F038F5F80930F03A89579
:1026B0000E9478068091D50384FD0E948710809146
:1026C0000F03815080930F030895CF92DF92EF9212
:1026D000FF92CF93DF93D82F80912B04882361F052
:1026E0001F928F9382EF95E09F938F930E94750CBA
:1026F0000F900F900F900F9080912B048F5F80931D
:102700002B040E9479046B017C0180913306876061
:1027100080933306C0E00E9479046C197D098E090C
:102720009F09603D77408105910578F4C1110DC086
:102730000E944213809133068770833061F7C1E0B5
:10274000809134068D13E6CFE6CF80912B04815023
:1027500080932B048C2FDF91CF91FF90EF90DF902F
:10276000CF9008958F929F92AF92BF92CF92DF92B7
:10277000EF92FF924B015C0180912B04882361F062
:102780001F928F9385E793E09F938F930E94750C20
:102790000F900F900F900F9080912B048F5F80937C
:1027A0002B040E9479046B017C010E9479046C194E
:1027B0007D098E099F09681579058A059B0518F41E
:1027C0000E944213F2CF80912B04815080932B04FE
:1027D000FF90EF90DF90CF90BF90AF909F908F9041
:1027E00008954F925F926F927F928F929F92AF92D5
:1027F000BF92CF92DF92EF92FF92CF93DF938FE958
:1028000092E00E94880761E08FE00E94D50361E0BA
:102810008FE00E94890361E084E00E94D50361E0BB
:1028200084E00E9489038091F2059091F3050E9453
:10283000980740E06CEC8091F2059091F3050E94BE
:10284000FD054091E90564E48091F2059091F3055E
:102850000E94FD058091ED05882311F1E091EC05C2
:102860008091EE05882309F4F5C18091E905811175
:10287000F1C10E9479046B017C018091F205909175
:10288000F3050E94AA05813059F00E9479046C1961
:102890007D098E099F096E3E72408105910568F39E
:1028A0008091C00381110CC08FE993E00E947E0AE1
:1028B00084E18093A5031092A40381E08093C00378
:1028C0008091970381110DC086E793E00E947E0AF4
:1028D00084E180937C038AE280937B0381E0809390
:1028E00097038EE693E00E94F6082091A2032770DA
:1028F00028622093A2032091A303206E2093A303B8
:102900006093A6037093A7038093A8039093A903F1
:1029100082E08093AA038FE993E00E940B0F67EA9D
:1029200072E086E793E00E949A090E940B0F809163
:10293000660381110CC085E493E00E947E0A85E164
:1029400080934B0310924A0381E080936603809149
:102950003D0381110DC08CE193E00E947E0A85E168
:10296000809322038AE28093210381E080933D03D8
:1029700084E193E00E94F6082091480327702862C2
:102980002093480320914903206E209349036093CC
:102990004C0370934D0380934E0390934F0382E05A
:1029A0008093500385E493E00E940B0F62EB72E08A
:1029B0008CE193E00E949A090E940B0F8EE00E9426
:1029C00006049C016AE070E00E941625EB01B90143
:1029D000330F880B990B0E94E32221E335EB45EA84
:1029E0005BE30E9442236B017C0120E030E040E485
:1029F00050E40E94DC2260E018162CF08FEB92E08D
:102A00000E94960761E082E095E00E9463060E94C2
:102A10000B0F60911F04062E000C770B84E495E0E9
:102A20000E9456060E940B0F0E94C706BC0188EC4C
:102A300095E00E9456060E940B0F60911D0466955A
:102A400070E071956195710987EA95E00E945606DC
:102A50000E940B0F60E08FE00E9489038FEC92E0F0
:102A60000E949607A7019601C701B6010E94112591
:102A7000882309F417C181EE92E00E9437078DEE9A
:102A800092E00E94880780EF92E00E9496074E0134
:102A90000D2E000CAA08BB084AE0C501B401D7FFFF
:102AA0000DC06DE285E694E00E941C05662777273D
:102AB000CB01681979098A099B094AE00E944407F9
:102AC00082E093E00E94880720E030E0A901C7017E
:102AD000B6010E94DC22882311F1809126058770BF
:102AE00088628093260580912705806E8093270554
:102AF000C0922A05D0922B05E0922C05F0922D056C
:102B000082E080932E0583E295E00E940B0FC701BF
:102B1000B6010E94D6247093130360931203809130
:102B20001203909113038C179D0781F020E043E07E
:102B300050E06FEF80E00E9479036C2F0E946306E3
:102B40000E94E40ED0931303C093120360E084E06C
:102B50000E94890385E093E00E9488071F928FEF0F
:102B60008F931F928F931F928F931F928F931F9219
:102B700081E08F931F928F9384ED8F9380EC8F93DE
:102B80008BED93E09F938F930E94750C8091D503FA
:102B90002DB73EB7205F3F4F0FB6F8943EBF0FBE34
:102BA0002DBF82FD33C18DEC93E09F938F930E94E4
:102BB000750C0E9479046B017C010F900F9080E0EE
:102BC00090E0DC012091D50322FD09C1803C34ED69
:102BD000930731E0A307B10508F009C1803D27E064
:102BE0009207A105B10508F4EFC020ECC22E24ED38
:102BF000D22EEE24E394F12CC81AD90AEA0AFB0A71
:102C0000FF92EF92DF92CF928DEB93E09F938F93A1
:102C10000E94750C0F900F900F900F900F900F90D7
:102C2000D701C6010197A109B109833F9140A105D0
:102C3000B10508F0F3C060EC74ED81E090E00E9413
:102C4000B2138FEA93E09F938F930E94750C0F90BD
:102C50000F90CDC0E9508EEE92E0E33038F4F0E012
:102C6000EE0FFF1FEA58FE4F808191816C01990F92
:102C7000EE08FF088091EA05882329F060E0809142
:102C8000EB050E948903C701B6010E9446048091AA
:102C9000EA05882309F404CE61E08091EB050E94E7
:102CA0008903FECD46015701E894B7F82FEF3FEFB7
:102CB0004FE75FE7C501B4010E94112581110DC0E6
:102CC0002FEF3FEF4FE75FE7C501B4010E94DC2221
:102CD00018161CF485EE92E0D0CE2FEF3FEF4FE7B1
:102CE0005FE4C701B6010E940C2518161CF489EE9A
:102CF00092E0C3CE2FEF3FEF4FE75FECC701B60185
:102D00000E94DC2287FDF3CF20E030E0A901C7015B
:102D1000B6010E94DC2287FF54C06DE285E694E094
:102D20000E941C05C701B60190582AE037ED43EA1E
:102D30005BE30E946A242B013C010E94DD244B01CD
:102D40005C010E94E1229B01AC01C301B2010E941F
:102D500069242B013C014AE0C501B4010E944407EB
:102D60006EE285E694E00E941C0520E030E040E23F
:102D700051E4C301B2010E9442232B013C010E9495
:102D8000DD244B01B12CA12C4AE0C501B4010E9405
:102D90004407C501B4010E94E1229B01AC01C301BB
:102DA000B2010E94692420E030E040E251E40E9438
:102DB00042230E94DD2490E080E04AE00E94440724
:102DC0005ECEC701B601B1CF0E9442130E947904C2
:102DD000DC01CB018C199D09AE09BF09F3CE803C03
:102DE00034ED930731E0A307B10508F4FECEDF917F
:102DF000CF91FF90EF90DF90CF90BF90AF909F90DA
:102E00008F907F906F905F904F90089580ECC82EC8
:102E100084EDD82EEE24E394F12C02CF20E243E09F
:102E200050E06FEF80E00E947903FC01838187709E
:102E30008062838384818F71806A848384EF91E0D0
:102E4000A0E0B0E087839087A187B287CF010E947E
:102E5000E40E64EF71E080E090E00E94B21382E93A
:102E600093E09F938F930E94750C83E090E00E9403
:102E70000F0B460157013FE0830E911CA11CB11CB2
:102E80000F900F90C1E0D0E0809116018F3F39F490
:102E900080E188169104A104B10408F04BC0809130
:102EA0001601809116018F3F09F05DC09FEF90934E
:102EB0001601282F082E000C330B3F938F938FE9B8
:102EC00093E09F938F930E94750C85E893E09F9306
:102ED0008F930E94750C84E090E00E940F0B21E21A
:102EE00043E050E06FEF80E00E947903FC018381B2
:102EF00087708062838384818F71806A8483C782B4
:102F0000D086E186F2860F900F900F900F900F9071
:102F10000F90CF01DF91CF91FF90EF90DF90CF9096
:102F2000BF90AF909F908F907F906F905F904F90E9
:102F30000C94E40E89E094E0980F2E0102C0440C3A
:102F4000551C9A95E2F7712C612C84149504A60403
:102F5000B70438F00E94DB0684189508A608B70865
:102F600093CF8150E8CF80911601A0CFCF9380916D
:102F70002D0481FD28C00E94501088E593E09F93A6
:102F80008F930E94750C80912D04816080932D0495
:102F90000F900F90C4E02AE143E050E06FEF80E033
:102FA0000E94790362E00E9463060E94E40E8BE1B6
:102FB0000E946513811102C0C15069F780912D04F0
:102FC000826080932D04CF9108950F931F930E94E8
:102FD00083062091D60320772037B9F000E117E26D
:102FE00020E030E0061717072807390798F48DE925
:102FF00092E09F938F930E94750C0F900F9087E142
:1030000091E01F910F910C94960600E61AEE20E0D5
:1030100030E0E8CF1F910F9108958091D603982F4B
:103020009077903759F0982F92959F709F5F977087
:103030009295907F8F78892B8093D6038091D603C9
:10304000829587701F928F938CE892E09F938F9365
:103050000E94750C8091D5038B7F8F7E8093D50362
:103060008EE792E09F938F930E94750C82E993E024
:103070009F938F930E94750C8DB79EB708960FB6DD
:10308000F8949EBF0FBE8DBF83E090E00C940F0BB1
:103090008091D6038F70863060F085E692E09F9332
:1030A0008F930E94750C0F900F9082E191E00C9429
:1030B00096060895809163041F928F938091620415
:1030C0001F928F93809161041F928F9386E492E008
:1030D0009F938F930E94750C8091D5038460809399
:1030E000D5038091D60380788093D603E091C803FE
:1030F000F091C9038DB79EB708960FB6F8949EBF9E
:103100000FBE8DBF309709F00994089584E392E0D3
:103110009F938F930E94750C0F900F908EE091E01B
:103120000C949606809161048F3F61F089E292E0F1
:103130009F938F930E94750C0F900F908AE091E0FF
:103140000C9496060E948306613D774081059105A7
:1031500090F08091D503803618F486E091E0F0CFAE
:103160008BE192E09F938F930E94750C0F900F90CC
:1031700082E091E0E5CF089583E192E09F938F9301
:103180000E94750C0F900F90809161048F3FA9F4FD
:1031900087E092E09F938F930E94750C23E043E0B9
:1031A00050E06FEF80E00E94790360E971E00E94D7
:1031B0009A090F900F900C94510E08950E94830667
:1031C000613D77408105910520F48091D50381FF11
:1031D0002FC0809162048F3F89F08AEF91E09F9326
:1031E0008F930E94750C8091D5038E7F8093D503B9
:1031F0000F900F9086E091E00C9496068091D50395
:10320000803658F486ED91E09F938F930E94750C61
:103210000F900F9082E191E0EFCF8AEE91E09F93C3
:103220008F930E94750C0F900F9082E091E0E4CF95
:1032300008958CEC91E09F938F930E94750CE5EDBF
:10324000F3E08081897F81608083E1E6F4E08FEFA5
:103250008283818327E043E050E06FEF0E9479038F
:1032600060E971E00E949A090F900F900C94510E42
:103270001F93CF93DF93CDB7DEB7E2970FB6F894E5
:10328000DEBF0FBECDBF8FEF8093DB0380912104A3
:1032900010921E0497E090931F04807E83608F7DC0
:1032A0008093210480EA809320042A9A229A1FB7EF
:1032B000F89480910E03811127C0EDE2F6E084912D
:1032C000E1E4F6E09491E82FF0E0EE0FFF1FE65303
:1032D000FA4FA591B491EC91E92321F461E08AE0E1
:1032E0000E94890361E08AE00E94D5038CB5806169
:1032F0008CBD8CB580648CBD61E08DE00E94D503EF
:1033000061E08BE00E94D50380910E038F5F809374
:103310000E031FBF84E090E00E940F0B82E3E0E207
:10332000F1E0DE01119601900D928A95E1F710E02F
:10333000E12FF0E0EE0FFF1F81E090E08C0F9D1F6A
:10334000E80FF91F80818F3F29F061810E94C60A32
:103350001F5FEECF69ED87E00E94C60A60E088E05B
:103360000E94C60A60E089E00E94C60A80911F049C
:10337000882331F010921F0462E581E10E94C60AA1
:103380000E94F30A882379F01092DA03529823EC12
:1033900036E030931C0120931B01909169009360EB
:1033A00090936900E89A909121049062909321048F
:1033B00090EA90932004811115C08CE691E09F93D0
:1033C0008F930E94750C0F900F9082E091E0E2962F
:1033D0000FB6F894DEBF0FBECDBFDF91CF911F9126
:1033E0000C9496068BEB91E09F938F930E94750C43
:1033F0008091D50380618093D503809164048E7F92
:10340000809364041F9215E61F9387EA91E09F93CF
:103410008F930E94750C1093610465E690E080E044
:103420000E942024109161040F900F900F900F9034
:103430000F900F901F3FF9F08FEF810F8E3FF0F448
:1034400084E090E00E940F0B1093DB03612F89E36F
:103450000E94C60A612F90E080E00E9420241F9203
:103460001F9380E891E09F938F930E94750C0F90BB
:103470000F900F900F9082E191E0A9CF1F921F92C1
:1034800082E991E09F938F930E94750C0F900F90AB
:103490000F900F909ACF82E691E09F938F930E94B6
:1034A000750CE5EDF3E08081877F8F7E808310923D
:1034B000D1031092D2031092D3031092D4030F9031
:1034C0000F9044E050E070E060E081E694E00C94FE
:1034D00000241F920F920FB60F9211242F933F9347
:1034E0008F939F93AF93BF93809123049091240473
:1034F000A0912504B09126043091220426E0230FE8
:103500002D3758F50296A11DB11D209322048093FA
:10351000230490932404A0932504B093260480915F
:10352000270490912804A0912904B0912A040196BF
:10353000A11DB11D8093270490932804A093290412
:10354000B0932A04BF91AF919F918F913F912F919A
:103550000F900FBE0F901F90189529E8230F039628
:10356000A11DB11DD2CF1F920F920FB60F92112441
:103570002F933F934F935F936F937F938F939F937B
:10358000AF93BF93EF93FF93E0911D01F0911E0164
:103590000995FF91EF91BF91AF919F918F917F918D
:1035A0006F915F914F913F912F910F900FBE0F90B0
:1035B0001F9018951F920F920FB60F9211242F9300
:1035C0003F934F935F936F937F938F939F93AF93AB
:1035D000BF93EF93FF93E0911B01F0911C010995BC
:1035E000FF91EF91BF91AF919F918F917F916F91DB
:1035F0005F914F913F912F910F900FBE0F901F90B1
:1036000018951F920F920FB60F9211242F933F938C
:103610004F935F936F937F938F939F93AF93BF93DA
:10362000EF93FF9385E694E00E94FA04FF91EF91F7
:10363000BF91AF919F918F917F916F915F914F91CA
:103640003F912F910F900FBE0F901F9018951F92D2
:103650000F920FB60F9211242F938F939F93EF9396
:10366000FF93E0917504F09176048081E0917B04F2
:10367000F0917C0482FD1BC0908180917E048F5F5D
:103680008F7320917F04821741F0E0917E04F0E077
:10369000EB59FB4F958F80937E04FF91EF919F91A3
:1036A0008F912F910F900FBE0F901F9018958081D2
:1036B000F4CF1F920F920FB60F9211240F900FBEEE
:1036C0000F901F901895CF93E5E6F4E013821282D5
:1036D00088EE93E0A0E0B0E084839583A683B7836F
:1036E00080E891E09183808385EC90E095878487E2
:1036F00084EC90E09787868780EC90E0918B808BBC
:1037000081EC90E0938B828B82EC90E0958B848BA4
:1037100086EC90E0978B868B118E128E138E148E12
:103720008FE296E00E947E0A8EE096E00E947E0A7A
:1037300060E083E00E94D503EAE3F6E0E491A0E0D4
:10374000B6E0EC93E6E2F6E0E491F0E0EE0FFF1F66
:10375000E75EF94F8591949112969C938E93119701
:103760001B961C921B971D961C921D971C961C92D3
:103770001C971A961C921A9719961C9219971896CC
:103780001C92189717961C92179716961C921697CC
:1037900015961C92159714961C92149713961C92CA
:1037A0001397E9EEF5E0168A158A1182B287A18790
:1037B00017821086108289E0838381E08483858369
:1037C000868388EC95E00E947E0AE8ECF5E0CAE08A
:1037D000C68388E1858387EA95E00E947E0AE7EA4E
:1037E000F5E0C68389E1858386E895E00E947E0A3C
:1037F000E6E8F5E0C6838AE1858385E695E00E94E8
:103800007E0AE5E6F5E0C6838BE1858384E495E0F6
:103810000E947E0AE4E4F5E0C6838CE1858383E2BE
:1038200095E00E947E0AE3E2F5E08CE0868386E282
:10383000858382E095E00E947E0AE2E0F5E08DE07B
:10384000868382E08583CF910895789484B58260E1
:1038500084BD84B5816084BD85B5826085BD85B534
:10386000816085BD80916E00816080936E001092B2
:10387000810080918100826080938100809181002D
:1038800081608093810080918000816080938000BE
:103890008091B10084608093B1008091B00081601C
:1038A0008093B00080917A00846080937A00809148
:1038B0007A00826080937A0080917A008E7F809374
:1038C0007A0080917A00806880937A001092C1001B
:1038D000A89580E090E0892B11F00E9400000E94E2
:1038E00051031F928FEF8F931F9288E08F938CE488
:1038F00094E09F938F930E94750C80912D048D7F8F
:1039000080932D040F900F900F900F900F900F90B9
:1039100080E090E0892B51F08FE394E09F938F93A8
:103920000E94750C0E9400000F900F9041E050E043
:1039300063E071E08CE294E00E9400246FEF81E08C
:1039400090E00E9420248091D6038F788093D60344
:103950001092CC031092CB0387E191E00E9496066F
:1039600086EB97E19093C9038093C8031F921F923F
:1039700083E18F9388E88F938AE094E09F938F93FD
:103980000E94750C0E9479046B017C010F900F90CE
:103990000F900F900F900F900E9479046C197D0981
:1039A0008E099F09683873418105910570F182E3A2
:1039B00094E09F938F930E94750C0E9458099091F8
:1039C000D5030F900F9092FB882780F992FD0E94FB
:1039D000F30A1F928F938AE194E09F938F930E9442
:1039E000750CA8950F900F900F900F90C0E0D0E04D
:1039F0000E9442130E94F1132097D1F30E94F00419
:103A00008823B1F30E940000F3CF0E9478068091D2
:103A1000D50384FD0E9487108091D50382FB8827FF
:103A200080F9A8958111C3CFB7CFEF920F931F9361
:103A3000CF93DF93E80134E047FD34E1042E000C1E
:103A4000550B57FF03C0519541955109E32E022FA5
:103A5000242FAE010E94F11FCE01DF91CF911F9163
:103A60000F91EF900895FC0188279927E894219100
:103A70002032E9F3293010F02E30C8F32B3241F018
:103A80002D3239F4689404C00E94A71D820F911D45
:103A9000219120532A30C0F31EF4909581959F4FB9
:103AA00008951F93FC0199278827BC01E894119180
:103AB0001032E9F3193010F01E30C8F31B3251F008
:103AC0001D3249F4689406C00E94921D610F711D59
:103AD000811D911D119110531A30B0F33EF4909551
:103AE0008095709561957F4F8F4F9F4F1F910895DF
:103AF000BB274A3031F4992322F4BDE29095819599
:103B00009F4F0C94D21DBB272A3051F4992342F4C5
:103B1000BDE290958095709561957F4F8F4F9F4F37
:103B20000C94B01D592F482F372F262F660F771F63
:103B3000881F991F660F771F881F991F620F731FB9
:103B4000841F951F660F771F881F991F08957AE0BD
:103B5000979F902D879F802D910D11240895BB274D
:103B6000FA01A62F6217710581059105330B30FB11
:103B700066F0AA27660F771F881F991FAA1FA21732
:103B800010F0A21B63953850A9F7A05DAA3308F086
:103B9000A95DA19336F7B111B1931082CA010C94BB
:103BA0003E22BB27FB015527AA27880F991FAA1F72
:103BB000A41710F0A41B83955051B9F7A05DAA3348
:103BC00008F0A95DA193009779F7B111B193119213
:103BD000CB010C943E22AEE0B0E0E1EFFDE10C94AD
:103BE00040248C01FA018EE08C831A83098377FFCD
:103BF00002C060E070E8615071097E836D83A901A5
:103C0000BF01CE0101960E94171E4D815E8157FDB6
:103C10000AC02F813885421753070CF49A01020F0E
:103C2000131FF80110822E96E4E00C945C24ABE0A4
:103C3000B0E0EDE1FEE10C9432247C013B018A010D
:103C4000FC0117821682838181FFC8C1CE010196D3
:103C50005C01F7019381F30193FD859193FF8191BD
:103C60003F01882309F453C1853239F493FD8591CE
:103C700093FF81913F01853229F4B70190E00E94C2
:103C80004E22E7CF912C212C312CFFE1F31538F097
:103C90008B3211F190F4803209F1833229F137FC33
:103CA0003CC020ED280F2A3050F536FE20C08AE0B7
:103CB000989E200D1124922E06C08D3291F08033F3
:103CC00071F7689430F8F30193FD859193FF81912A
:103CD0003F018111DACF21C0689431F8689432F83D
:103CE000F2CF689433F8EFCF689434F8ECCFEAE081
:103CF0002E9E200D1124222E689435F8E4CF8E32AA
:103D000029F436FC04C1689436F8DDCF8C3619F4FA
:103D1000689437F8D8CF8836B1F2982F9F7D9554A4
:103D20009330E0F08336A1F18337C1F1833509F098
:103D300063C02801F2E04F0E511CF801C080D18011
:103D4000692D70E036FC02C06FEF7FEFC6010E9464
:103D500028224C01689437F882010AC00C5F1F4F7B
:103D6000FFE3F98388248394912C6501E89437F864
:103D700033FE2DC0522C8114910471F5552009F4A5
:103D800068CFB70180E290E00E944E225A94F6CFAD
:103D9000F801808189830E5F1F4FE4CF2801F2E094
:103DA0004F0E511CF801C080D180692D70E036FCA7
:103DB00002C06FEF7FEFC6010E9433224C018201E7
:103DC000D5CFB70180E290E00E944E222A942814B9
:103DD000190409F0B0F7CECFF60137FC859137FE14
:103DE00081916F01B70190E00E944E2251105A94C8
:103DF000F1E08F1A9108BFCF843619F0893609F0A7
:103E000077C0F80137FE6BC0608171818281938138
:103E10000C5F1F4FF32DFF763F2E97FF09C0909543
:103E20008095709561957F4F8F4F9F4F689437F8BD
:103E30002AE030E0A5010E947E22C82ECA188C2CF0
:103E4000432C36FE0CC0E89440F8C91440F434FE0C
:103E500005C032FC03C0F32DFE7E4F2E892C44FE9C
:103E600095C0FE01EC0DF11D8081803309F087C003
:103E7000242D297E422E842D8870582E43FC95C017
:103E800040FE8FC09C2C821418F42C0C922C981895
:103E900044FE91C0B70180E390E00E944E2242FEB2
:103EA00009C088E790E041FE02C088E590E0B701D4
:103EB0000E944E22C91408F48AC0CA94D12C9FEFE4
:103EC000C91AD90ACA0CDB1CF60182916F01B7012D
:103ED00090E00E944E22AC14BD04B1F74FCF608138
:103EE0007181072E000C880B990B0E5F1F4F92CF2C
:103EF000D32CE894D4F82AE030E0853739F1232D2B
:103F0000297FD22E8F3601F148F48835A9F0F701C8
:103F1000868197812B96E2E10C944E24803749F0FC
:103F20008837A9F7D4FE02C06894D2F820E130E0C7
:103F30000DC06894D4F8F6CF34FE03C0822F86609B
:103F4000D82E20E132E002C028E030E0F801D7FEB0
:103F50000FC060817181828193810C5F1F4FA50129
:103F60000E947E22C82ECA183D2CE89437F867CFED
:103F70006081718190E080E00E5F1F4FF0CF42FCC6
:103F800002C0839478CF8394839475CF842D8678F0
:103F900009F471CFF6CFB70180E290E00E944E2283
:103FA00083948214C0F3512C73CF522C581882146E
:103FB00008F46ECFF8CF842D867809F47BCF8BE29E
:103FC00041FE80E247FC8DE2B70190E071CFB7017E
:103FD00080E390E00E944E229A946CCF8FEF9FEF87
:103FE00099CFA9E0B0E0E7EFFFE10C9438246A0133
:103FF000F22EB02E102FFBE3AF2EA01608F41BE319
:104000001F5F012F27E0AE014F5F5F4F0E945021DD
:10401000BC018981982F9970913009F43FC09BE2CF
:10402000E1FC04C09E2D9170E0FC3AC05E2D507101
:10403000E82FE87083FF46C084E0911101C083E05F
:10404000EF2DE81B8F1508F0E0E0D6018E2F20E25F
:10405000552351F1992329F0D6019C93C60101966D
:104060006C0196012D5F3F4FE2FE24C08EE4D60125
:104070008C9391E411969C93119712968C93D9018D
:104080008E2F90E281111BC0E20FF32FF11D1082E1
:104090008EEF9FEF2996ECE00C9454249DE2C6CF5E
:1040A00090E2C4CF2D9381508111FCCFCE0ED11C54
:1040B000E0E0D0CF8EE6D6018C9391E6DBCF9D93E6
:1040C0008150E0CF482F447082FF3DC084E09111C1
:1040D00001C083E08F1510F4EF2DE81BD6018E2F61
:1040E00020E2552309F1992329F0D6019C93C601BA
:1040F00001966C0196012D5F3F4FE2FE1BC089E4E3
:10410000D6018C938EE411968C93119786E41296C7
:104110008C93D9018E2F90E2882309F4B5CF9D931B
:104120008150FACF2D9381508111FCCFCE0ED11C3E
:10413000E0E0D9CF89E6D6018C938EE611968C9378
:10414000119786E6E4CF9B0177FF02C030E020E0C4
:10415000A1E0B0E0911102C0B0E0A0E0F901319619
:10416000AE0FBF1F8B2C912CBB2009F461C05401F2
:10417000EFEFAE1ABE0AAA0DBB1DFA161B0619F008
:1041800014F04F2D4A1B511188C0E3FC59C0760131
:10419000A42FB0E2A1114FC0C40ED11C992309F481
:1041A0005BC040E0D6011196F60190836D01552366
:1041B00009F448C0012F060F9A81582F507184FFCF
:1041C00003C0913309F4015010160CF047C00930B8
:1041D00008F008E0EEE2FE2E5B01A01AB1088501AE
:1041E0009194819491082F3F320729F4D601FC92D3
:1041F000F60131966F016217730794F102171307E6
:104200007CF5DB01A21BB30BAA24A394B12CAC0E4A
:10421000BD1EAA0DBB1D11968C9121503109D601EE
:10422000119628153905F4F0F60180836D01DBCF76
:10423000B12CA12CA0CFF701B1937F01A150AACF3F
:104240009111B0CFD601942F50E302C05D939150ED
:104250009111FCCFC40ED11C40E0ACCF01E0BACF2D
:1042600080E3DBCF6217730731F4963388F495331C
:1042700011F4552369F0F6018083FD01842F90E24B
:10428000811108C0A40FB11D1C9290E080E002CF04
:1042900081E3F1CF91938150F3CF911183CF8ACFF6
:1042A000283008F027E03327DA01990F311D87FD08
:1042B000916000966105710539F432602E5F3D937F
:1042C00030E32A95E1F708959F3F30F0803871057B
:1042D000610509F03C5F3C5F3D93913008F08068D8
:1042E000911DDF93CF931F930F93FF92EF92192F9E
:1042F000987F9695E92F96959695E90FFF27EE53AF
:10430000FF4F99273327EE24FF24A701E7010590EB
:104310000894079428F4360FE71EF81E491F511D14
:10432000660F771F881F991F0694A1F705900794C1
:1043300028F4E70EF81E491F561FC11D770F881F6E
:10434000991F661F0694A1F70590079428F4F80EAC
:10435000491F561FC71FD11D880F991F661F771F42
:104360000694A1F70590079420F4490F561FC71F24
:10437000D81F990F661F771F881F0694A9F784918D
:104380001095177041F0D695C79557954795F794B6
:10439000E7941A95C1F7E8E6F0E068941590159156
:1043A00035916591959105907FE27395E118F10A39
:1043B000430B560BC90BD009C0F7E10CF11E431F8C
:1043C000561FC91FD01D7EF4703311F48A95E6CFB5
:1043D000E894015030F0080F0AF40027021708F49F
:1043E000202F2395022F7A3328F079E37D932A95A5
:1043F000E9F710C07D932A9589F6069497956795FD
:10440000379517951794E118F10A430B560BC90B12
:10441000D00998F023957E9173957A3308F070E374
:104420007C932013B8F77E9170617D9330F0839573
:1044300071E37D9370E32A95E1F71124EF90FF90EB
:104440000F911F91CF91DF91992787FD9095089546
:10445000FC010590615070400110D8F7809590954F
:104460008E0F9F1F0895FC01615070400190011054
:10447000D8F7809590958E0F9F1F0895DC01FC0161
:10448000672F71917723E1F7329704C07C916D9388
:1044900070836291AE17BF07C8F308950F931F93FF
:1044A000CF93DF93182F092FEB018B8181FD09C07A
:1044B0001FEF0FEF812F902FDF91CF911F910F9161
:1044C000089582FF14C02E813F818C819D81281721
:1044D00039073CF4E881F981CF01019699838883FB
:1044E00010838E819F8101969F838E83E3CFE88521
:1044F000F985812F0995892BA1F3DACFFA01AA2733
:10450000283051F1203181F1E8946F936E7F6E5F16
:104510007F4F8F4F9F4FAF4FB1E03ED0B4E03CD0C4
:10452000670F781F891F9A1FA11D680F791F8A1FA7
:10453000911DA11D6A0F711D811D911DA11D20D00E
:1045400009F468943F912AE0269F11243019305DC8
:104550003193DEF6CF010895462F4770405D4193B9
:10456000B3E00FD0C9F7F6CF462F4F70405D4A3306
:1045700018F0495D31FD4052419302D0A9F7EACFCE
:10458000B4E0A6959795879577956795BA95C9F7FD
:1045900000976105710508959B01AC010A2E0694F0
:1045A0005795479537952795BA95C9F7620F731FA9
:1045B000841F951FA01D08950E941E2308F481E00A
:1045C0000895E89409C097FB3EF490958095709506
:1045D00061957F4F8F4F9F4F9923A9F0F92F96E94F
:1045E000BB279395F695879577956795B795F111C4
:1045F000F8CFFAF4BB0F11F460FF1BC06F5F7F4F61
:104600008F4F9F4F16C0882311F096E911C0772372
:1046100021F09EE8872F762F05C0662371F096E87B
:10462000862F70E060E02AF09A95660F771F881F4A
:10463000DAF7880F9695879597F90895990F0008EE
:10464000550FAA0BE0E8FEEF16161706E807F90764
:10465000C0F012161306E407F50798F0621B730BFF
:10466000840B950B39F40A2661F0232B242B252B80
:1046700021F408950A2609F4A140A6958FEF811D23
:10468000811D08950E9455230C94C6230E94B823CF
:1046900038F00E94BF2320F0952311F00C94AF2333
:1046A0000C94B52311240C94FA230E94D72370F3A1
:1046B000959FC1F3950F50E0551F629FF001729FC7
:1046C000BB27F00DB11D639FAA27F00DB11DAA1FD6
:1046D000649F6627B00DA11D661F829F2227B00D23
:1046E000A11D621F739FB00DA11D621F839FA00DAE
:1046F000611D221F749F3327A00D611D231F849FFE
:10470000600D211D822F762F6A2F11249F57504054
:104710009AF0F1F088234AF0EE0FFF1FBB1F661FCF
:10472000771F881F91505040A9F79E3F510580F098
:104730000C94AF230C94FA235F3FE4F3983ED4F338
:10474000869577956795B795F795E7959F5FC1F73C
:10475000FE2B880F911D9695879597F9089597F9E7
:104760009F6780E870E060E008959FEF80EC089517
:1047700000240A9416161706180609060895002440
:104780000A9412161306140605060895092E0394BA
:10479000000C11F4882352F0BB0F40F4BF2B11F42E
:1047A00060FF04C06F5F7F4F8F4F9F4F089557FD8D
:1047B0009058440F551F59F05F3F71F04795880F8F
:1047C00097FB991F61F09F3F79F087950895121626
:1047D00013061406551FF2CF4695F1DF08C01616D2
:1047E00017061806991FF1CF869571056105089483
:1047F0000895E894BB2766277727CB0197F908959A
:10480000DC01CB01FC01F999FECF06C0F2BDE1BD90
:10481000F89A319600B40D9241505040B8F708957F
:10482000DC01A40FB51F4150504048F0CB01840F6C
:10483000951F2E910E94212441505040D0F7089599
:10484000262FF999FECF92BD81BDF89A019700B449
:10485000021639F01FBA20BD0FB6F894FA9AF99AE9
:104860000FBE08952F923F924F925F926F927F9268
:104870008F929F92AF92BF92CF92DF92EF92FF9270
:104880000F931F93CF93DF93CDB7DEB7CA1BDB0B1C
:104890000FB6F894DEBF0FBECDBF09942A883988C1
:1048A00048885F846E847D848C849B84AA84B984C8
:1048B000C884DF80EE80FD800C811B81AA81B981D4
:1048C000CE0FD11D0FB6F894DEBF0FBECDBFED01E8
:1048D00008955058BB27AA270E9481240C94C62310
:1048E0000E94B82338F00E94BF2320F039F49F3F84
:1048F00019F426F40C94B5230EF4E095E7FB0C9420
:10490000AF23E92F0E94D72358F3BA176207730722
:104910008407950720F079F4A6F50C94F9230EF49A
:10492000E0950B2EBA2FA02D0B01B90190010C01BF
:10493000CA01A0011124FF27591B99F0593F50F4D7
:10494000503E68F11A16F040A22F232F342F44272F
:10495000585FF3CF469537952795A795F040539527
:10496000C9F77EF41F16BA0B620B730B840BBAF0F7
:104970009150A1F0FF0FBB1F661F771F881FC2F762
:104980000EC0BA0F621F731F841F48F48795779576
:104990006795B795F7959E3F08F0B0CF9395880F30
:1049A00008F09927EE0F9795879508950E94DD24CA
:1049B0006894B1110C94FA2308950E94DF2388F0C3
:1049C0009F5798F0B92F9927B751B0F0E1F0660FD3
:1049D000771F881F991F1AF0BA95C9F714C0B13014
:1049E00091F00E94F923B1E008950C94F923672F08
:1049F000782F8827B85F39F0B93FCCF38695779543
:104A00006795B395D9F73EF490958095709561952B
:104A10007F4F8F4F9F4F08950E941E2308F48FEF02
:104A200008950E941E23880B990B089597FB072E6B
:104A300016F4009407D077FD09D00E94522507FC98
:104A400005D03EF4909581959F4F0895709561959E
:104A50007F4F0895A1E21A2EAA1BBB1BFD010DC0BA
:104A6000AA1FBB1FEE1FFF1FA217B307E407F5071E
:104A700020F0A21BB30BE40BF50B661F771F881FFA
:104A8000991F1A9469F760957095809590959B0190
:104A9000AC01BD01CF010895EE0FFF1F0590F49109
:104AA000E02D0994AA1BBB1B51E107C0AA1FBB1F25
:104AB000A617B70710F0A61BB70B881F991F5A95AA
:104AC000A9F780959095BC01CD010895FB01DC010B
:104AD00002C001900D9241505040D8F70895FB015B
:104AE000DC014150504048F001900D920020C9F780
:104AF00001C01D9241505040E0F70895F894FFCF57
:104B0000FFFF0D18E517BC189218C20686185A1830
:104B100048181919DE18FF4B1A3819850485040145
:104B2000010402000302044005030633188819E259
:104B30001AE22607281029E42C002D032E882F2D99
:104B4000306437D4384039FF3AFF3C053D106F30B0
:104B5000FF00050700020406070707070707070706
:104B600007070707070707070707070707070707D5
:104B70000707070701035E00BC0077010000000083
:104B80001C058604B3046905E404C204D6040D0AB6
:104B9000004C6F636174696E672064657669636554
:104BA000732E2E2E00466F756E642000206465768D
:104BB000696365732E00506172617369746520705A
:104BC0006F7765722069733A20004F4E004F46465A
:104BD00000556E61626C6520746F2066696E64209A
:104BE0006164647265737320666F722044657669D0
:104BF0006365203000556E61626C6520746F2066BD
:104C0000696E64206164647265737320666F7220DC
:104C10004465766963652031003C4E4F4E43453E06
:104C2000004F4B004E41434B003F002100322E33DA
:104C30002E320050726573656E742044616C6C6135
:104C40007320626567696E0054656D70657261748A
:104C50007572650044616C6C617300322E300050D7
:104C6000726573656E742044616C6C617320656E4F
:104C70006400566F6C74616765004C6F7720426109
:104C800074005458204C4556454C2044424D005425
:104C900058205253534900525820525353490077D9
:104CA000616B6520757000546865726D6F5F416956
:104CB0007200546865726D6F5F576174657200426F
:104CC000617474657920697320656D707479004230
:104CD00061747465727920566F6C746167653A20EF
:104CE000006E616E00696E66006F76660020560089
:104CF000426174746572792070657263656E743A8E
:0E4D00002000202500676F20736C6565700031
:00000001FF
